:020000040000FA
:100000000C946F000C9497000C9497000C9497003C
:100010000C9497000C9497000C9497000C94970004
:100020000C9497000C9497000C9497000C949700F4
:100030000C9497000C9497000C9497000C949700E4
:100040000C9410050C9497000C9480050C945A05A0
:100050000C9497000C9497000C9497000C949700C4
:100060000C9497000C949700084AD73B3BCE016E46
:1000700084BCBFFDC12F3D6C74319ABD56833DDAFF
:100080003D00C77F11BED9E4BB4C3E916BAAAABE0E
:10009000000000803F072C7AA5BA6CC590DA3B932C
:1000A00065FC8BBC53F810FD3C5692834DBD879D7B
:1000B0003AB63DCBC9BF5BBE73DA0FC93F05A84C4A
:1000C000CDB2D44EB93836A9020C50B99186880801
:1000D0003CA6AAAA2ABE000000803F0032081124D4
:1000E0001FBECFEFD8E0DEBFCDBF11E0A0E0B1E092
:1000F000ECEAF8E102C005900D92A637B107D9F7F6
:1001000028E0A6E7B1E001C01D92AC35B207E1F7E7
:1001100010E0CFE6D0E004C02197FE010E944E0C13
:10012000CE36D107C9F70E94B2050C94540C0C943A
:1001300000003FB7F89480917B0190917C01A091E1
:100140007D01B0917E0126B5A89B05C02F3F19F017
:100150000196A11DB11D3FBFBA2FA92F982F882747
:10016000BC01CD01620F711D811D911D42E0660F22
:10017000771F881F991F4A95D1F708958F929F92F4
:10018000AF92BF92CF92DF92EF92FF920E949900BE
:100190004B015C0184E6C82ED12CE12CF12C0E948D
:1001A0009900681979098A099B09683E734081059D
:1001B0009105A8F321E0C21AD108E108F10888EE00
:1001C000880E83E0981EA11CB11CC114D104E10467
:1001D000F10429F7FF90EF90DF90CF90BF90AF90A0
:1001E0009F908F900895AF92BF92CF92DF92EF923F
:1001F000FF920F931F93CF93DF936C017B018B01D1
:10020000040F151FEB015E01AE18BF08C017D10720
:1002100059F06991D601ED91FC910190F081E02DAA
:10022000C6010995892B79F7C501DF91CF911F91FF
:100230000F91FF90EF90DF90CF90BF90AF90089517
:10024000FC01538D448D252F30E0842F90E0821BDC
:10025000930B541710F0CF96089501970895FC0161
:10026000918D828D981761F0A28DAE0FBF2FB11DB9
:100270005D968C91928D9F5F9F73928F90E0089511
:100280008FEF9FEF0895FC01918D828D981731F0CB
:10029000828DE80FF11D858D90E008958FEF9FEF1F
:1002A0000895FC01918D228D892F90E0805C9F4FF5
:1002B000821B91098F73992708958FEB97E00E9415
:1002C000510121E0892B09F420E0822F089580E07C
:1002D00090E0892B29F00E945D0181110C940000AF
:1002E0000895FC01A48DA80FB92FB11DA35ABF4FCB
:1002F0002C91848D90E001968F739927848FA68925
:10030000B7892C93A089B1898C91837080648C9378
:10031000938D848D981306C00288F389E02D808127
:100320008F7D80830895EF92FF920F931F93CF9359
:10033000DF93EC0181E0888F9B8D8C8D98131AC020
:10034000E889F989808185FF15C09FB7F894EE8907
:10035000FF896083E889F989808183708064808364
:100360009FBF81E090E0DF91CF911F910F91FF90AF
:10037000EF900895F62E0B8D10E00F5F1F4F0F7357
:100380001127E02E8C8D8E110CC00FB607FCFACF12
:10039000E889F989808185FFF5CFCE010E9471013E
:1003A000F1CFEB8DEC0FFD2FF11DE35AFF4FF082E3
:1003B0009FB7F8940B8FEA89FB8980818062CFCF49
:1003C000CF93DF93EC01888D8823B9F0AA89BB898C
:1003D000E889F9898C9185FD03C0808186FD0DC077
:1003E0000FB607FCF7CF8C9185FFF2CF808185FF98
:1003F000EDCFCE010E947101E9CFDF91CF91089539
:100400004F925F926F927F928F929F92AF92BF9224
:10041000CF92DF92EF92FF920F931F93CF93DF93D0
:10042000CDB7DEB72C970FB6F894DEBF0FBECDBFA9
:100430002B013C0149015A01AC019B010E943F0B79
:100440006B017C01A5019401C501B4010E943F0B21
:100450009B01AC01C701B6010E9471080E94BA0B52
:100460009B01AC010E943F0B20E030E048E453E4E4
:100470000E94700820E030E048E453E40E945909EB
:100480000E945F08162FF72E082FE92EA301920174
:10049000C501B4010E94F0084B015C01612F7F2D62
:1004A000802F9E2D0E9454092B013C01612F7F2D2E
:1004B000802F9E2D0E94AC0B69877A878B879C8743
:1004C00020E030E040E251E4C301B2010E943F0B62
:1004D00020E030E040E251E40E9471082B013C0131
:1004E00020E030E040E251E469857A858B859C8587
:1004F0000E943F0BA30192010E94F0089B01AC01F6
:10050000C501B4010E9470089B01AB01BC01498385
:100510005A836B837C83812F9F2DA02FBE2D8D83CB
:100520009E83AF83B8873A814B815C81612F7E8146
:100530008F8198852C960FB6F894DEBF0FBECDBF85
:10054000DF91CF911F910F91FF90EF90DF90CF90AF
:10055000BF90AF909F908F907F906F905F904F90E3
:100560000895FC0101900020E9F73197AF01481B85
:10057000590BBC018FEB97E00C94F3008F929F9284
:10058000AF92BF920F931F93CF93DF93CDB7DEB798
:10059000A1970FB6F894DEBF0FBECDBF19A24230AF
:1005A00008F44AE08E010F5D1F4F842E912CB12C70
:1005B000A12CA50194010E942C0CE62FB901CA01BF
:1005C000EA30F4F4E05DD801EE938D01232B242B67
:1005D000252B79F790E080E0109719F0CD010E946B
:1005E000B102A1960FB6F894DEBF0FBECDBFDF916A
:1005F000CF911F910F91BF90AF909F908F900895D2
:10060000E95CE1CFCF93DF930E94B102EC018AE273
:1006100091E00E94B1028C0F9D1FDF91CF91089550
:100620000C94B1022F923F924F925F926F927F9201
:100630008F929F92AF92BF92CF92DF92EF92FF92F2
:100640000F931F93CF93DF93CDB7DEB76C970FB6A1
:10065000F894DEBF0FBECDBF29833A834B835C8302
:100660006D837E838F839887A986BA86CB86DC8646
:10067000ED86FE860F87188B89819A81AB81BC81BC
:10068000898B9A8BAB8BBC8B8D819E81AF81B8851A
:100690008D8B9E8BAF8BB88F29893A894B895C896A
:1006A00069857A858B859C850E9470082B013C01A9
:1006B0002D893E894F89588D6D857E858F859889D6
:1006C0000E9470086B017C01A3019201C301B20179
:1006D0000E943F0B4B015C01A7019601C701B601C7
:1006E0000E943F0B9B01AC01C501B4010E9471083F
:1006F0000E94BA0B4B015C0120E030E0A9010E948E
:100700004F0981111CC08DE291E06C960FB6F894F0
:10071000DEBF0FBECDBFDF91CF911F910F91FF9034
:10072000EF90DF90CF90BF90AF909F908F907F9091
:100730006F905F904F903F902F900C940203A50113
:100740009401C301B2010E9459092B013C01A5018A
:100750009401C701B6010E945909698F7A8F8B8F66
:100760009C8F2FE7222E21E0322EC12CD12C760136
:1007700010E000E0A5019401C701B6010E944F09F5
:100780001816DCF1083C110519F480E591E0BDCFA5
:10079000A3019201C701B6010E943F0B29893A8942
:1007A0004B895C890E947108D1016D937D938D9373
:1007B0009C931397298D3A8D4B8D5C8DC701B601A3
:1007C0000E943F0B2D893E894F89588D0E947108E8
:1007D000F101648375838683978320E030E040E0F5
:1007E0005FE3C701B6010E9471086B017C010F5FD6
:1007F0001F4FF8E02F0E311CBDCF083C110529F228
:10080000D80193E0AA0FBB1F9A95E1F7A158BE4FFC
:1008100088E0FE01399601900D928A95E1F70F5F0D
:100820001F4F083C110509F4B0CF83E0000F111FE2
:100830008A95E1F7F801E158FE4F80E090E0A0E8EA
:10084000BFE780839183A283B383148215821682CB
:1008500017826C960FB6F894DEBF0FBECDBFDF9146
:10086000CF911F910F91FF90EF90DF90CF90BF90AD
:10087000AF909F908F907F906F905F904F903F9040
:100880002F9008954F925F926F927F928F929F92D6
:10089000AF92BF92CF92DF92EF92FF926B017C01F9
:1008A000AC019B010E94FE0B882381F087E691E05A
:1008B000FF90EF90DF90CF90BF90AF909F908F9080
:1008C0007F906F905F904F900C94B102460157015A
:1008D000E894B7F82FEF3FEF4FE75FE7C501B401AA
:1008E0000E94FE0B81110DC02FEF3FEF4FE75FE736
:1008F000C501B4010E944F0918161CF48BE691E063
:10090000D7CF2FEF3FEF4FE75FE4C701B6010E945B
:10091000320B18161CF48FE691E0CACF2FEF3FEF91
:100920004FE75FECC701B6010E944F0987FDF3CF87
:1009300020E030E0A901C701B6010E944F09B12CA7
:10094000A12C87FF0AC06DE28FEB97E00E94930114
:100950005C01F7FAF094F7F8F0942AE037ED43EAF7
:100960005BE3C701B6010E9471082B013C010E94A4
:10097000CB096B017C010E94FA099B01AC01C30108
:10098000B2010E9470082B013C014AE0C701B60188
:100990000E94BE027C01EA0CFB1C6EE28FEB97E02A
:1009A0000E949301E80EF91E20E030E040E251E49D
:1009B000C301B2010E943F0B2B013C010E94CB09F5
:1009C0004B01B12CA12C4AE0C501B4010E94BE022A
:1009D000E80EF91EC501B4010E94FA099B01AC01A1
:1009E000C301B2010E94700820E030E040E251E40F
:1009F0000E943F0B0E94CB0990E080E04AE00E94F9
:100A0000BE028E0D9F1DFF90EF90DF90CF90BF90A4
:100A1000AF909F908F907F906F905F904F900895D0
:100A20001F920F920FB60F9211242F933F938F9323
:100A30009F93AF93BF938091770190917801A0919C
:100A40007901B0917A013091760123E0230F2D379F
:100A500058F50196A11DB11D209376018093770171
:100A600090937801A0937901B0937A0180917B01F2
:100A700090917C01A0917D01B0917E010196A11D14
:100A8000B11D80937B0190937C01A0937D01B09375
:100A90007E01BF91AF919F918F913F912F910F90C8
:100AA0000FBE0F901F90189526E8230F0296A11DE8
:100AB000B11DD2CF1F920F920FB60F9211242F9318
:100AC0003F934F935F936F937F938F939F93AF93D6
:100AD000BF93EF93FF938FEB97E00E947101FF911B
:100AE000EF91BF91AF919F918F917F916F915F91A6
:100AF0004F913F912F910F900FBE0F901F9018951F
:100B00001F920F920FB60F9211242F938F939F93E2
:100B1000EF93FF93E091CF07F091D0078081E091B0
:100B2000D507F091D60782FD1BC090818091D80730
:100B30008F5F8F732091D907821741F0E091D8071A
:100B4000F0E0E154F84F958F8093D807FF91EF9133
:100B50009F918F912F910F900FBE0F901F9018951E
:100B60008081F4CFCF93DF93CDB7DEB7E8970FB690
:100B7000F894DEBF0FBECDBF789484B5826084BD8B
:100B800084B5816084BD85B5826085BD85B5816091
:100B900085BD80916E00816080936E00109281000F
:100BA00080918100826080938100809181008160CA
:100BB000809381008091800081608093800080918B
:100BC000B10084608093B1008091B0008160809317
:100BD000B00080917A00846080937A0080917A00DE
:100BE000826080937A0080917A00816080937A009D
:100BF00080917A00806880937A001092C100E09121
:100C0000CF07F091D00782E08083E091CB07F0918D
:100C1000CC071082E091CD07F091CE078FEC808356
:100C20001092D707E091D307F091D40786E0808334
:100C3000E091D107F091D207808180618083E091BB
:100C4000D107F091D207808188608083E091D1073D
:100C5000F091D207808180688083E091D107F09184
:100C6000D20780818F7D808388E0E0E0F1E0DE01C3
:100C7000119601900D928A95E1F788E0E8E0F1E0A5
:100C8000DE01199601900D928A95E1F7A980BA804C
:100C9000CB80DC80ED80FE800F81188529853A8528
:100CA0004B855C856D857E858F8598890E941203B2
:100CB0008FE7882E81E0982E8401F801C080D180D2
:100CC000E280F3802FEF3FEF4FE75FE7C701B60108
:100CD0000E94320B181664F420E030E0A901F801FC
:100CE00064817581868197810E944F098823D9F09C
:100CF000C701B6010E94420483E791E00E941003FD
:100D0000F80164817581868197810E9442048BE29B
:100D100091E00E9410030E94BE00085F1F4FF7E0A1
:100D20000F3B1F0751F60FE711E0F801C080D1809B
:100D3000E280F38044805580668077802FEF3FEF1C
:100D40004FE75FE7C701B6010E94320B18164CF45B
:100D500020E030E0A901C301B2010E944F098823BD
:100D600059F1A3019201C701B6010E940002298B2B
:100D70003A8B4B8B5C8B6D8B7E8B8F8B988F6989BD
:100D80007A898B899C890E94420483E791E00E94C2
:100D900010036D897E898F89988D0E9442048BE2B1
:100DA00091E00E9410030E94BE00085F1F4FF7E011
:100DB0000F3B1F0709F0B9CF88E0E0E1F1E0DE0169
:100DC000519601900D928A95E1F788E0E0E0F1E01C
:100DD000DE01599601900D928A95E1F7A988BA88AB
:100DE000CB88DC88ED88FE880F89188D298D3A8D97
:100DF0004B8D5C8D6D8D7E8D8F8D98A10E94120321
:100E00000FE711E0F801C080D180E280F3802FEF7E
:100E10003FEF4FE75FE7C701B6010E94320B18169C
:100E200064F420E030E0A901F801648175818681D5
:100E300097810E944F098823D9F0C701B6010E940B
:100E4000420483E791E00E941003F80164817581F8
:100E5000868197810E9442048BE291E00E941003F8
:100E60000E94BE00085F1F4FF7E00F3B1F0751F6BF
:100E70000FE711E0F801C080D180E280F380448068
:100E80005580668077802FEF3FEF4FE75FE7C70120
:100E9000B6010E94320B18164CF420E030E0A90194
:100EA000C301B2010E944F09882359F1A3019201A5
:100EB000C701B6010E94000229A33AA34BA35CA379
:100EC0006DA37EA38FA398A769A17AA18BA19CA1F2
:100ED0000E94420483E791E00E9410036DA17EA16D
:100EE0008FA198A50E9442048BE291E00E9410031A
:100EF0000E94BE00085F1F4FF7E00F3B1F0709F07D
:100F0000B9CF88E0E8E0F1E0DE01919601900D9222
:100F10008A95E1F788E0E0E1F1E0DE019996019041
:100F20000D928A95E1F7A9A0BAA0CBA0DCA0EDA014
:100F3000FEA00FA118A529A53AA54BA55CA56DA5F6
:100F40007EA58FA598A90E9412030FE711E0F80172
:100F5000C080D180E280F3802FEF3FEF4FE75FE763
:100F6000C701B6010E94320B181664F420E030E08D
:100F7000A901F80164817581868197810E944F09DA
:100F80008823D9F0C701B6010E94420483E791E0AB
:100F90000E941003F80164817581868197810E9407
:100FA00042048BE291E00E9410030E94BE00085FA1
:100FB0001F4FF7E00F3B1F0751F6F401C080D180AF
:100FC000E280F38044805580668077802FEF3FEF8A
:100FD0004FE75FE7C701B6010E94320B18164CF4C9
:100FE00020E030E0A901C301B2010E944F0988232B
:100FF00069F1A3019201C701B6010E94000229AB69
:101000003AAB4BAB5CAB6DAB7EAB8FAB98AF69A92A
:101010007AA98BA99CA90E94420483E791E00E94CF
:1010200010036DA97EA98FA998AD0E9442048BE29E
:1010300091E00E9410030E94BE00F8E08F0E911C08
:101040008FEB881687E0980609F0B7CF00E010E034
:1010500001151105E9F30E945D018823C9F30E947F
:101060000000F6CFEFEBF7E01382128288EE93E0F8
:10107000A0E0B0E084839583A683B7838CE191E000
:101080009183808385EC90E09587848784EC90E061
:101090009787868780EC90E0918B808B81EC90E045
:1010A000938B828B82EC90E0958B848B86EC90E026
:1010B000978B868B118E128E138E148E08959F93AC
:1010C0009F770E94370A0F90002042F49058A2EABE
:1010D0002AED3FE049E450E40E9488080C94E40AB9
:1010E0005058BB27AA270E9488080C94E40A0E9443
:1010F000AB0A38F00E94B20A20F039F49F3F19F48D
:1011000026F40C94810A0EF4E095E7FB0C947B0A1C
:10111000E92F0E94090B58F3BA1762077307840777
:10112000950720F079F4A6F50C942B0B0EF4E095BE
:101130000B2EBA2FA02D0B01B90190010C01CA0191
:10114000A0011124FF27591B99F0593F50F4503E3C
:1011500068F11A16F040A22F232F342F4427585F2E
:10116000F3CF469537952795A795F0405395C9F746
:101170007EF41F16BA0B620B730B840BBAF09150FE
:10118000A1F0FF0FBB1F661F771F881FC2F70EC09D
:10119000BA0F621F731F841F48F487957795679570
:1011A000B795F7959E3F08F0B0CF9395880F08F05C
:1011B0009927EE0F9795879508950E94AB0A60F0E6
:1011C00080E891E009F49EEF0E94B20A28F040E81E
:1011D00051E071F45EEF0CC00C94810A0C942B0B5F
:1011E000E92FE0780E94090B40F3092E052AB1F39C
:1011F000261737074807590738F00E2E07F8E0255D
:1012000069F0E025E0640AC0EF6307F8009407FA8C
:10121000DB01B9019D01DC01CA01AD01EF930E9420
:1012200070090E94E40A0E9420095F91552339F059
:101230002BED3FE049E450FD49EC0C947108089512
:10124000DF93DD27B92FBF7740E85FE31616170657
:1012500048075B0718F4D92F0E94370B9F938F9391
:101260007F936F930E94FA0BE8E6F0E00E94840AF5
:101270000E94E40A2F913F914F915F910E94520B7F
:10128000DD2351F09058A2EA2AED3FE049EC5FE3FC
:10129000D0785D270E948808DF910C94E40A0E94B0
:1012A000570A08F481E008950E94BB0AE3950C9464
:1012B000F50A0E946D090C94E40A0E94B20A58F0E3
:1012C0000E94AB0A40F029F45F3F29F00C947B0A9E
:1012D00051110C942C0B0C94810A0E94090B68F399
:1012E0009923B1F3552391F3951B550BBB27AA27DF
:1012F00062177307840738F09F5F5F4F220F331F19
:10130000441FAA1FA9F335D00E2E3AF0E0E832D0E0
:1013100091505040E695001CCAF72BD0FE2F29D0E3
:10132000660F771F881FBB1F261737074807AB07B5
:10133000B0E809F0BB0B802DBF01FF2793585F4F2A
:101340003AF09E3F510578F00C947B0A0C942C0BDC
:101350005F3FE4F3983ED4F3869577956795B7950C
:10136000F7959F5FC9F7880F911D9695879597F917
:101370000895E1E0660F771F881FBB1F6217730790
:101380008407BA0720F0621B730B840BBA0BEE1FA5
:1013900088F7E09508950E94110B88F09F5798F008
:1013A000B92F9927B751B0F0E1F0660F771F881F6A
:1013B000991F1AF0BA95C9F714C0B13091F00E9484
:1013C0002B0BB1E008950C942B0B672F782F8827F7
:1013D000B85F39F0B93FCCF3869577956795B395AB
:1013E000D9F73EF490958095709561957F4F8F4F1A
:1013F0009F4F0895E89409C097FB3EF4909580951F
:10140000709561957F4F8F4F9F4F9923A9F0F92FCA
:1014100096E9BB279395F695879577956795B79548
:10142000F111F8CFFAF4BB0F11F460FF1BC06F5F2E
:101430007F4F8F4F9F4F16C0882311F096E911C040
:10144000772321F09EE8872F762F05C0662371F061
:1014500096E8862F70E060E02AF09A95660F771F75
:10146000881FDAF7880F9695879597F90895DF9387
:10147000CF931F930F938B01EC01E5E9F0E00E94FD
:10148000840A0E94E40A9801AE018B01EC0160E03D
:1014900070E080E89FE30E9470080E94BA0B9801F8
:1014A000AE010F911F91CF91DF910C94520B990FC8
:1014B0000008550FAA0BE0E8FEEF16161706E8071E
:1014C000F907C0F012161306E407F50798F0621B3F
:1014D000730B840B950B39F40A2661F0232B242B14
:1014E000252B21F408950A2609F4A140A6958FEF33
:1014F000811D811D089597F99F6780E870E060E085
:1015000008959FEF80EC0895DF93CF931F930F937F
:10151000FF92EF92DF927B018C01689406C0DA2E75
:10152000EF010E94520BFE01E894A591259135919F
:1015300045915591A6F3EF010E948808FE0197019D
:10154000A801DA9469F7DF90EF90FF900F911F9157
:10155000CF91DF91089500240A94161617061806F5
:101560000906089500240A941216130614060506A7
:1015700008950C94810A0E94110BD8F3E894E0E0DE
:10158000BB279F57F0F02AED3FE049EC06C0EE0F75
:10159000BB0F661F771F881F28F0B23A62077307D8
:1015A000840728F0B25A620B730B840BE3959A956B
:1015B00072F7803830F49A95BB0F661F771F881F2B
:1015C000D2F790480C94050C092E0394000C11F4EA
:1015D000882352F0BB0F40F4BF2B11F460FF04C00E
:1015E0006F5F7F4F8F4F9F4F0895EF93E0FF07C0CE
:1015F000A2EA2AED3FE049EC5FEB0E9488080E94D6
:10160000E40A0F90039401FC9058EDEBF0E00C9489
:10161000180C57FD9058440F551F59F05F3F71F05B
:101620004795880F97FB991F61F09F3F79F0879549
:101630000895121613061406551FF2CF4695F1DFD2
:1016400008C0161617061806991FF1CF8695710562
:10165000610508940895E894BB2766277727CB0196
:1016600097F908950E94570A08F48FEF08959B0197
:10167000AC0160E070E080E89FE30C9459090E949F
:10168000520B0C94E40A0E94AB0A38F00E94B20A92
:1016900020F0952311F00C947B0A0C94810A1124FC
:1016A0000C942C0B0E94090B70F3959FC1F3950FBE
:1016B00050E0551F629FF001729FBB27F00DB11DD6
:1016C000639FAA27F00DB11DAA1F649F6627B00D66
:1016D000A11D661F829F2227B00DA11D621F739F4F
:1016E000B00DA11D621F839FA00D611D221F749F5D
:1016F0003327A00D611D231F849F600D211D822FA4
:10170000762F6A2F11249F5750409AF0F1F08823CA
:101710004AF0EE0FFF1FBB1F661F771F881F9150F7
:101720005040A9F79E3F510580F00C947B0A0C9421
:101730002C0B5F3FE4F3983ED4F38695779567953D
:10174000B795F795E7959F5FC1F7FE2B880F911D21
:101750009695879597F908959F930E94BB0A0F90DD
:1017600007FCEE5F0C94F50A19F416F40C94810A48
:101770000C94030C0E94110BB8F39923C9F3B6F330
:101780009F57550B87FF0E94110C0024A0E640EAEA
:10179000900180585695979528F4805C660F771FC6
:1017A000881F20F026173707480730F4621B730B99
:1017B000840B202931294A2BA695179407942025BC
:1017C00031254A2758F7660F771F881F20F0261704
:1017D0003707480730F4620B730B840B200D311D63
:1017E000411DA09581F7B901842F9158880F9695D6
:1017F000879508959B01AC010C943F0B0E94570AFA
:10180000880B990B08959F3F31F0915020F48795F4
:1018100077956795B795880F911D9695879597F958
:10182000089591505040660F771F881FD2F7089592
:101830009F938F937F936F93FF93EF939B01AC01E3
:101840000E943F0BEF91FF910E94840A2F913F91DC
:101850004F915F910C943F0BA1E21A2EAA1BBB1B68
:10186000FD010DC0AA1FBB1FEE1FFF1FA217B3076C
:10187000E407F50720F0A21BB30BE40BF50B661F82
:10188000771F881F991F1A9469F760957095809546
:1018900090959B01AC01BD01CF010895EE0FFF1F94
:1018A0000590F491E02D0994F894FFCF000020C139
:1018B000000020C10000204100002041000020C1A4
:1018C00000002041000000009301F3002001E0012E
:1018D00051012F0143010D0A004552524F523A2047
:1018E000737461727420616E6420656E642061722D
:1018F00065206964656E746963616C004552524F7E
:10190000523A20706174685B5D206F766572666C18
:101910006F77006E616E00696E66006F7666002CF0
:021920002000A5
:107E0000112484B714BE81FFF0D085E080938100F7
:107E100082E08093C00088E18093C10086E0809377
:107E2000C20080E18093C4008EE0C9D0259A86E02C
:107E300020E33CEF91E0309385002093840096BBD3
:107E4000B09BFECF1D9AA8958150A9F7CC24DD24C4
:107E500088248394B5E0AB2EA1E19A2EF3E0BF2EE7
:107E6000A2D0813461F49FD0082FAFD0023811F036
:107E7000013811F484E001C083E08DD089C08234E0
:107E800011F484E103C0853419F485E0A6D080C0E4
:107E9000853579F488D0E82EFF2485D0082F10E0AE
:107EA000102F00270E291F29000F111F8ED06801E7
:107EB0006FC0863521F484E090D080E0DECF843638
:107EC00009F040C070D06FD0082F6DD080E0C81688
:107ED00080E7D80618F4F601B7BEE895C0E0D1E017
:107EE00062D089930C17E1F7F0E0CF16F0E7DF06D8
:107EF00018F0F601B7BEE89568D007B600FCFDCFD4
:107F0000A601A0E0B1E02C9130E011968C91119780
:107F100090E0982F8827822B932B1296FA010C0160
:107F200087BEE89511244E5F5F4FF1E0A038BF0790
:107F300051F7F601A7BEE89507B600FCFDCF97BE46
:107F4000E89526C08437B1F42ED02DD0F82E2BD052
:107F50003CD0F601EF2C8F010F5F1F4F84911BD097
:107F6000EA94F801C1F70894C11CD11CFA94CF0C13
:107F7000D11C0EC0853739F428D08EE10CD085E9AC
:107F80000AD08FE07ACF813511F488E018D01DD067
:107F900080E101D065CF982F8091C00085FFFCCF94
:107FA0009093C60008958091C00087FFFCCF809118
:107FB000C00084FD01C0A8958091C6000895E0E648
:107FC000F0E098E1908380830895EDDF803219F02E
:107FD00088E0F5DFFFCF84E1DECF1F93182FE3DFCA
:107FE0001150E9F7F2DF1F91089580E0E8DFEE27F6
:047FF000FF270994CA
:027FFE00040479
:00000001FF
