:100000000C946F000C9497000C9497000C9497003C
:100010000C9497000C9497000C9497000C94970004
:100020000C9497000C9497000C9497000C949700F4
:100030000C9497000C9497000C9497000C949700E4
:100040000C943B030C9497000C94AB030C94850325
:100050000C9497000C9497000C9497000C949700C4
:100060000C9497000C949700084AD73B3BCE016E46
:1000700084BCBFFDC12F3D6C74319ABD56833DDAFF
:100080003D00C77F11BED9E4BB4C3E916BAAAABE0E
:10009000000000803F072C7AA5BA6CC590DA3B932C
:1000A00065FC8BBC53F810FD3C5692834DBD879D7B
:1000B0003AB63DCBC9BF5BBE73DA0FC93F05A84C4A
:1000C000CDB2D44EB93836A9020C50B99186880801
:1000D0003CA6AAAA2ABE000000803F00D405112435
:1000E0001FBECFEFD8E0DEBFCDBF11E0A0E0B1E092
:1000F000E0EFF3E102C005900D92A434B107D9F707
:1001000028E0A4E4B1E001C01D92AA32B207E1F7F1
:1001100010E0CFE6D0E004C02197FE010E94F00974
:10012000CE36D107C9F70E94DD030C94F6090C9472
:1001300000003FB7F8948091890790918A07A091B9
:100140008B07B0918C0726B5A89B05C02F3F19F0EF
:100150000196A11DB11D3FBFBA2FA92F982F882747
:10016000BC01CD01620F711D811D911D42E0660F22
:10017000771F881F991F4A95D1F708958F929F92F4
:10018000AF92BF92CF92DF92EF92FF920E949900BE
:100190004B015C0184E6C82ED12CE12CF12C0E948D
:1001A0009900681979098A099B09683E734081059D
:1001B0009105A8F321E0C21AD108E108F10888EE00
:1001C000880E83E0981EA11CB11CC114D104E10467
:1001D000F10429F7FF90EF90DF90CF90BF90AF90A0
:1001E0009F908F900895AF92BF92CF92DF92EF923F
:1001F000FF920F931F93CF93DF936C017B018B01D1
:10020000040F151FEB015E01AE18BF08C017D10720
:1002100059F06991D601ED91FC910190F081E02DAA
:10022000C6010995892B79F7C501DF91CF911F91FF
:100230000F91FF90EF90DF90CF90BF90AF90089517
:10024000FC01538D448D252F30E0842F90E0821BDC
:10025000930B541710F0CF96089501970895FC0161
:10026000918D828D981761F0A28DAE0FBF2FB11DB9
:100270005D968C91928D9F5F9F73928F90E0089511
:100280008FEF9FEF0895FC01918D828D981731F0CB
:10029000828DE80FF11D858D90E008958FEF9FEF1F
:1002A0000895FC01918D228D892F90E0805C9F4FF5
:1002B000821B91098F73992708958DE897E00E941A
:1002C000510121E0892B09F420E0822F089580E07C
:1002D00090E0892B29F00E945D0181110C940000AF
:1002E0000895FC01A48DA80FB92FB11DA35ABF4FCB
:1002F0002C91848D90E001968F739927848FA68925
:10030000B7892C93A089B1898C91837080648C9378
:10031000938D848D981306C00288F389E02D808127
:100320008F7D80830895EF92FF920F931F93CF9359
:10033000DF93EC0181E0888F9B8D8C8D98131AC020
:10034000E889F989808185FF15C09FB7F894EE8907
:10035000FF896083E889F989808183708064808364
:100360009FBF81E090E0DF91CF911F910F91FF90AF
:10037000EF900895F62E0B8D10E00F5F1F4F0F7357
:100380001127E02E8C8D8E110CC00FB607FCFACF12
:10039000E889F989808185FFF5CFCE010E9471013E
:1003A000F1CFEB8DEC0FFD2FF11DE35AFF4FF082E3
:1003B0009FB7F8940B8FEA89FB8980818062CFCF49
:1003C000CF93DF93EC01888D8823B9F0AA89BB898C
:1003D000E889F9898C9185FD03C0808186FD0DC077
:1003E0000FB607FCF7CF8C9185FFF2CF808185FF98
:1003F000EDCFCE010E947101E9CFDF91CF91089539
:10040000FC0101900020E9F73197AF01481B590B1F
:10041000BC018DE897E00C94F3008F929F92AF920D
:10042000BF920F931F93CF93DF93CDB7DEB7A19702
:100430000FB6F894DEBF0FBECDBF19A2423008F44C
:100440004AE08E010F5D1F4F842E912CB12CA12C00
:10045000A50194010E94CE09E62FB901CA01EA3034
:10046000F4F4E05DD801EE938D01232B242B252B92
:1004700079F790E080E0109719F0CD010E9400021A
:10048000A1960FB6F894DEBF0FBECDBFDF91CF911E
:100490001F910F91BF90AF909F908F900895E95C4E
:1004A000E1CFCF93DF930E940002EC018AE191E05B
:1004B0000E9400028C0F9D1FDF91CF9108954F92F3
:1004C0005F926F927F928F929F92AF92BF92CF92E4
:1004D000DF92EF92FF920F931F93CF936B017C01FA
:1004E000742EAC019B010E94A009882399F08DE134
:1004F00091E0CF911F910F91FF90EF90DF90CF90FF
:10050000BF90AF909F908F907F906F905F904F9033
:100510000C94000246015701E894B7F82FEF3FEF23
:100520004FE75FE7C501B4010E94A00981110DC02A
:100530002FEF3FEF4FE75FE7C501B4010E94F106DF
:1005400018161CF481E291E0D4CF2FEF3FEF4FE774
:100550005FE4C701B6010E94D40818161CF485E2B6
:1005600091E0C7CF2FEF3FEF4FE75FECC701B60138
:100570000E94F10687FDF3CF20E030E0A901C7011A
:10058000B6010E94F10610E000E087FF0AC06DE2AC
:100590008DE897E00E9493018C01F7FAF094F7F848
:1005A000F094C0E060E070E080E09FE37C1641F0F2
:1005B00020E030E040E251E40E94FB06CF5FF6CF3E
:1005C000A70196010E9413062B013C010E946D07B2
:1005D0004B015C014AE00E940D027C01E00EF11E1D
:1005E000CC23C1F1C501B4010E949C079B01AC0161
:1005F000C301B2010E9412064B015C016EE28DE85C
:1006000097E00E949301E80EF91EC15018F120E016
:1006100030E040E251E4C501B4010E94E1082B0141
:100620003C010E946D074B01B12CA12C4AE0C50191
:10063000B4010E940D02E80EF91EC501B4010E942A
:100640009C079B01AC01C301B2010E9412064B0141
:100650005C01DBCFC701CF911F910F91FF90EF900D
:10066000DF90CF90BF90AF909F908F907F906F90D2
:100670005F904F9008951F920F920FB60F92112422
:100680002F933F938F939F93AF93BF938091850751
:1006900090918607A0918707B091880730918407D1
:1006A00023E0230F2D3758F50196A11DB11D20938E
:1006B00084078093850790938607A0938707B0935C
:1006C00088078091890790918A07A0918B07B09144
:1006D0008C070196A11DB11D8093890790938A070D
:1006E000A0938B07B0938C07BF91AF919F918F918F
:1006F0003F912F910F900FBE0F901F90189526E8F5
:10070000230F0296A11DB11DD2CF1F920F920FB6DB
:100710000F9211242F933F934F935F936F937F9387
:100720008F939F93AF93BF93EF93FF938DE897E0E1
:100730000E947101FF91EF91BF91AF919F918F91B5
:100740007F916F915F914F913F912F910F900FBECD
:100750000F901F9018951F920F920FB60F921124B1
:100760002F938F939F93EF93FF93E0919D07F091C9
:100770009E078081E091A307F091A40782FD1BC032
:1007800090818091A6078F5F8F732091A7078217B2
:1007900041F0E091A607F0E0E357F84F958F809382
:1007A000A607FF91EF919F918F912F910F900FBE10
:1007B0000F901F9018958081F4CFCF93DF93CDB722
:1007C000DEB764970FB6F894DEBF0FBECDBF789446
:1007D00084B5826084BD84B5816084BD85B5826046
:1007E00085BD85B5816085BD80916E0081608093F7
:1007F0006E00109281008091810082608093810060
:10080000809181008160809381008091800081606F
:10081000809380008091B10084608093B1008091CA
:10082000B00081608093B00080917A0084608093F2
:100830007A0080917A00826080937A0080917A00B9
:10084000816080937A0080917A00806880937A003A
:100850001092C100E0919D07F0919E0782E0808395
:10086000E0919907F0919A071082E0919B07F0912F
:100870009C078FEC80831092A507E091A107F0916F
:10088000A20786E08083E0919F07F091A007808116
:1008900080618083E0919F07F091A007808188604C
:1008A0008083E0919F07F091A0078081806880831A
:1008B000E0919F07F091A00780818F7D808388E081
:1008C000E0E0F1E0DE01199601900D928A95E1F7E2
:1008D00088E0FE013996DE01119601900D928A950D
:1008E000E1F704E411E05801F12CE12C412C512CEA
:1008F00032012EE239EF44EE5EEBC301B2010E94F9
:10090000E10820E030E0A9010E941306F5016083B0
:100910007183828393832EE239EF44E65FEBC30158
:10092000B2010E94E10820E030E040E251E40E9480
:100930001306F501648375838683978320E030E096
:1009400040E05FE3C301B2010E9413062B013C01AA
:100950006701FFEFCF1ADF0A2CEA32EE42EB51E4D7
:100960000E94F10618167CF588ECC816D104A1F196
:10097000D60123E0AA0FBB1F2A95E1F7AC5BBE4F5F
:1009800088E0FE01319601900D928A95E1F7E2E050
:10099000EE0EF11CF8ECEF16F104F1F0F70193E024
:1009A000EE0FFF1F9A95E1F7EC5BFE4F80E090E0C1
:1009B000A0E8BFE780839183A283B383148215826A
:1009C000168217820DC088E0A80EB11C7601E8ECF3
:1009D000CE16D10409F08DCF89E291E00E94510238
:1009E00084E4E82E81E0F82EF70180809180A280D7
:1009F000B3802FEF3FEF4FE75FE7C501B4010E94DF
:100A0000D408181664F420E030E0A901F7016481ED
:100A10007581868197810E94F1068823F9F042E072
:100A2000C501B4010E945F0280E491E00E940002CF
:100A3000F701648175818681978142E00E945F029F
:100A40008BE191E00E9400020E94BE00F8E0EF0EF0
:100A5000F11C84E8E81687E0F80631F6F8014080DA
:100A600051806280738084809580A680B7802FEF4C
:100A70003FEF4FE75FE7C301B2010E94D4081816A9
:100A800054F420E030E0A901C501B4010E94F10650
:100A9000882309F47DC0A3019201C301B2010E9421
:100AA000E1086B017C01A5019401C501B4010E941C
:100AB000E1089B01AC01C701B6010E9413060E9428
:100AC0005C099B01AC010E94E10820E030E048E4B1
:100AD00053E40E94120620E030E048E453E40E9410
:100AE000FB060E9401066B017C01A3019201C50176
:100AF000B4010E949206698B7A8B8B8B9C8BC70109
:100B0000B6010E94F6062B013C01C701B6010E9406
:100B10004E094B015C0120E030E040E251E4C301AA
:100B2000B2010E94E10820E030E040E251E40E947E
:100B300013062B013C0120E030E040E251E4C50106
:100B4000B4010E94E108A30192010E9492069B0158
:100B5000AC0169897A898B899C890E94120642E0DE
:100B60000E945F0280E491E00E94000242E0C7011F
:100B7000B6010E945F028BE191E00E9400020E9498
:100B8000BE00085F1F4FF7E004381F0709F066CF6B
:100B900000E010E001151105E9F30E945D018823D2
:100BA000C9F30E940000F6CFEDE8F7E0138212824D
:100BB00088EE93E0A0E0B0E084839583A683B783BA
:100BC0008CE091E09183808385EC90E09587848729
:100BD00084EC90E09787868780EC90E0918B808B07
:100BE00081EC90E0938B828B82EC90E0958B848BF0
:100BF00086EC90E0978B868B118E128E138E148E5E
:100C000008959F939F770E94D9070F90002042F488
:100C10009058A2EA2AED3FE049E450E40E942A06F7
:100C20000C9486085058BB27AA270E942A060C94C9
:100C300086080E944D0838F00E94540820F039F4CC
:100C40009F3F19F426F40C9423080EF4E095E7FB7B
:100C50000C941D08E92F0E94AB0858F3BA176207DD
:100C600073078407950720F079F4A6F50C94CD0856
:100C70000EF4E0950B2EBA2FA02D0B01B9019001B7
:100C80000C01CA01A0011124FF27591B99F0593FFB
:100C900050F4503E68F11A16F040A22F232F342F43
:100CA0004427585FF3CF469537952795A795F04091
:100CB0005395C9F77EF41F16BA0B620B730B840BA6
:100CC000BAF09150A1F0FF0FBB1F661F771F881F5E
:100CD000C2F70EC0BA0F621F731F841F48F48795B6
:100CE00077956795B795F7959E3F08F0B0CF9395A8
:100CF000880F08F09927EE0F9795879508950E9421
:100D00004D0860F080E891E009F49EEF0E945408DD
:100D100028F040E851E071F45EEF0CC00C94230819
:100D20000C94CD08E92FE0780E94AB0840F3092E1F
:100D3000052AB1F3261737074807590738F00E2E52
:100D400007F8E02569F0E025E0640AC0EF6307F8E2
:100D5000009407FADB01B9019D01DC01CA01AD0174
:100D6000EF930E9412070E9486080E94C2065F91BC
:100D7000552339F02BED3FE049E450FD49EC0C944C
:100D800013060895DF93DD27B92FBF7740E85FE3AF
:100D90001616170648075B0718F4D92F0E94D908C2
:100DA0009F938F937F936F930E949C09E8E6F0E0F6
:100DB0000E9426080E9486082F913F914F915F91D3
:100DC0000E94F408DD2351F09058A2EA2AED3FE09A
:100DD00049EC5FE3D0785D270E942A06DF910C94EE
:100DE00086080E94F90708F481E008950E945D08D2
:100DF000E3950C9497080E940F070C9486080E94B4
:100E0000540858F00E944D0840F029F45F3F29F043
:100E10000C941D0851110C94CE080C9423080E94C8
:100E2000AB0868F39923B1F3552391F3951B550B48
:100E3000BB27AA2762177307840738F09F5F5F4FAD
:100E4000220F331F441FAA1FA9F335D00E2E3AF0EC
:100E5000E0E832D091505040E695001CCAF72BD004
:100E6000FE2F29D0660F771F881FBB1F2617370755
:100E70004807AB07B0E809F0BB0B802DBF01FF2787
:100E800093585F4F3AF09E3F510578F00C941D083F
:100E90000C94CE085F3FE4F3983ED4F386957795A3
:100EA0006795B795F7959F5FC9F7880F911D969540
:100EB000879597F90895E1E0660F771F881FBB1F9C
:100EC000621773078407BA0720F0621B730B840B49
:100ED000BA0BEE1F88F7E09508950E94B30888F0DA
:100EE0009F5798F0B92F9927B751B0F0E1F0660FEE
:100EF000771F881F991F1AF0BA95C9F714C0B1302F
:100F000091F00E94CD08B1E008950C94CD08672FB0
:100F1000782F8827B85F39F0B93FCCF3869577955D
:100F20006795B395D9F73EF4909580957095619546
:100F30007F4F8F4F9F4F0895E89409C097FB3EF471
:100F400090958095709561957F4F8F4F9F4F992316
:100F5000A9F0F92F96E9BB279395F6958795779594
:100F60006795B795F111F8CFFAF4BB0F11F460FF54
:100F70001BC06F5F7F4F8F4F9F4F16C0882311F0AC
:100F800096E911C0772321F09EE8872F762F05C0C0
:100F9000662371F096E8862F70E060E02AF09A955B
:100FA000660F771F881FDAF7880F9695879597F950
:100FB0000895DF93CF931F930F938B01EC01E5E925
:100FC000F0E00E9426080E9486089801AE018B017D
:100FD000EC0160E070E080E89FE30E9412060E944E
:100FE0005C099801AE010F911F91CF91DF910C9494
:100FF000F408990F0008550FAA0BE0E8FEEF16164B
:101000001706E807F907C0F012161306E407F507FC
:1010100098F0621B730B840B950B39F40A2661F070
:10102000232B242B252B21F408950A2609F4A14013
:10103000A6958FEF811D811D089597F99F6780E820
:1010400070E060E008959FEF80EC0895DF93CF9308
:101050001F930F93FF92EF92DF927B018C016894B4
:1010600006C0DA2EEF010E94F408FE01E894A59173
:101070002591359145915591A6F3EF010E942A06DD
:10108000FE019701A801DA9469F7DF90EF90FF90D5
:101090000F911F91CF91DF91089500240A941616A5
:1010A000170618060906089500240A941216130656
:1010B0001406050608950C9423080E94B308D8F37B
:1010C000E894E0E0BB279F57F0F02AED3FE049ECC1
:1010D00006C0EE0FBB0F661F771F881F28F0B23ABD
:1010E00062077307840728F0B25A620B730B840BF4
:1010F000E3959A9572F7803830F49A95BB0F661F86
:10110000771F881FD2F790480C94A709092E0394E3
:10111000000C11F4882352F0BB0F40F4BF2B11F4E4
:1011200060FF04C06F5F7F4F8F4F9F4F0895EF9315
:10113000E0FF07C0A2EA2AED3FE049EC5FEB0E9426
:101140002A060E9486080F90039401FC9058EDEB4C
:10115000F0E00C94BA0957FD9058440F551F59F010
:101160005F3F71F04795880F97FB991F61F09F3F94
:1011700079F087950895121613061406551FF2CFBD
:101180004695F1DF08C0161617061806991FF1CF0D
:1011900086957105610508940895E894BB27662734
:1011A0007727CB0197F908950E94F90708F48FEF8C
:1011B00008959B01AC0160E070E080E89FE30C942F
:1011C000FB060E94F4080C9486080E944D0838F033
:1011D0000E94540820F0952311F00C941D080C94E3
:1011E000230811240C94CE080E94AB0870F3959F3D
:1011F000C1F3950F50E0551F629FF001729FBB270E
:10120000F00DB11D639FAA27F00DB11DAA1F649FA9
:101210006627B00DA11D661F829F2227B00DA11D5C
:10122000621F739FB00DA11D621F839FA00D611DE2
:10123000221F749F3327A00D611D231F849F600D03
:10124000211D822F762F6A2F11249F5750409AF02C
:10125000F1F088234AF0EE0FFF1FBB1F661F771FB8
:10126000881F91505040A9F79E3F510580F00C9483
:101270001D080C94CE085F3FE4F3983ED4F38695A6
:1012800077956795B795F795E7959F5FC1F7FE2B23
:10129000880F911D9695879597F908959F930E94C1
:1012A0005D080F9007FCEE5F0C94970819F416F494
:1012B0000C9423080C94A5090E94B308B8F3992351
:1012C000C9F3B6F39F57550B87FF0E94B30900245B
:1012D000A0E640EA900180585695979528F4805CE6
:1012E000660F771F881F20F026173707480730F44E
:1012F000621B730B840B202931294A2BA695179466
:101300000794202531254A2758F7660F771F881F35
:1013100020F026173707480730F4620B730B840B55
:10132000200D311D411DA09581F7B901842F9158E1
:10133000880F9695879508959B01AC010C94E10860
:101340000E94F907880B990B08959F3F31F0915047
:1013500020F4879577956795B795880F911D969599
:10136000879597F9089591505040660F771F881F11
:10137000D2F708959F938F937F936F93FF93EF938B
:101380009B01AC010E94E108EF91FF910E942608A9
:101390002F913F914F915F910C94E108A1E21A2E99
:1013A000AA1BBB1BFD010DC0AA1FBB1FEE1FFF1F09
:1013B000A217B307E407F50720F0A21BB30BE40B59
:1013C000F50B661F771F881F991F1A9469F76095A0
:1013D0007095809590959B01AC01BD01CF0108955A
:1013E000EE0FFF1F0590F491E02D0994F894FFCFC4
:1013F000000020C1000020C1000000009301F300A4
:101400002001E00151012F0143010D0A006E616EC0
:1014100000696E66006F7666004552524F523A2060
:10142000706174685B5D206F766572666C6F7700C3
:041430002C2000006C
:00000001FF
